{"abi":[{"type":"constructor","inputs":[{"name":"_token0","type":"address","internalType":"address"},{"name":"_token1","type":"address","internalType":"address"},{"name":"_name","type":"string","internalType":"string"},{"name":"_symbol","type":"string","internalType":"string"}],"stateMutability":"nonpayable"},{"type":"function","name":"addLiquidity","inputs":[{"name":"_amount0","type":"uint256","internalType":"uint256"},{"name":"_amount1","type":"uint256","internalType":"uint256"},{"name":"_minLPTokens","type":"uint256","internalType":"uint256"}],"outputs":[{"name":"lpTokensMinted","type":"uint256","internalType":"uint256"}],"stateMutability":"nonpayable"},{"type":"function","name":"allowance","inputs":[{"name":"owner","type":"address","internalType":"address"},{"name":"spender","type":"address","internalType":"address"}],"outputs":[{"name":"","type":"uint256","internalType":"uint256"}],"stateMutability":"view"},{"type":"function","name":"approve","inputs":[{"name":"spender","type":"address","internalType":"address"},{"name":"value","type":"uint256","internalType":"uint256"}],"outputs":[{"name":"","type":"bool","internalType":"bool"}],"stateMutability":"nonpayable"},{"type":"function","name":"balanceOf","inputs":[{"name":"account","type":"address","internalType":"address"}],"outputs":[{"name":"","type":"uint256","internalType":"uint256"}],"stateMutability":"view"},{"type":"function","name":"decimals","inputs":[],"outputs":[{"name":"","type":"uint8","internalType":"uint8"}],"stateMutability":"view"},{"type":"function","name":"feesAccumulatedToken0","inputs":[],"outputs":[{"name":"","type":"uint256","internalType":"uint256"}],"stateMutability":"view"},{"type":"function","name":"feesAccumulatedToken1","inputs":[],"outputs":[{"name":"","type":"uint256","internalType":"uint256"}],"stateMutability":"view"},{"type":"function","name":"getAmountOut","inputs":[{"name":"_amountIn","type":"uint256","internalType":"uint256"},{"name":"_reserveIn","type":"uint256","internalType":"uint256"},{"name":"_reserveOut","type":"uint256","internalType":"uint256"}],"outputs":[{"name":"","type":"uint256","internalType":"uint256"}],"stateMutability":"pure"},{"type":"function","name":"getK","inputs":[],"outputs":[{"name":"","type":"uint256","internalType":"uint256"}],"stateMutability":"view"},{"type":"function","name":"getPrice","inputs":[],"outputs":[{"name":"","type":"uint256","internalType":"uint256"}],"stateMutability":"view"},{"type":"function","name":"getReserves","inputs":[],"outputs":[{"name":"","type":"uint256","internalType":"uint256"},{"name":"","type":"uint256","internalType":"uint256"}],"stateMutability":"view"},{"type":"function","name":"name","inputs":[],"outputs":[{"name":"","type":"string","internalType":"string"}],"stateMutability":"view"},{"type":"function","name":"owner","inputs":[],"outputs":[{"name":"","type":"address","internalType":"address"}],"stateMutability":"view"},{"type":"function","name":"removeLiquidity","inputs":[{"name":"_lpTokens","type":"uint256","internalType":"uint256"},{"name":"_minAmount0","type":"uint256","internalType":"uint256"},{"name":"_minAmount1","type":"uint256","internalType":"uint256"}],"outputs":[{"name":"amount0","type":"uint256","internalType":"uint256"},{"name":"amount1","type":"uint256","internalType":"uint256"}],"stateMutability":"nonpayable"},{"type":"function","name":"renounceOwnership","inputs":[],"outputs":[],"stateMutability":"nonpayable"},{"type":"function","name":"reserve0","inputs":[],"outputs":[{"name":"","type":"uint256","internalType":"uint256"}],"stateMutability":"view"},{"type":"function","name":"reserve1","inputs":[],"outputs":[{"name":"","type":"uint256","internalType":"uint256"}],"stateMutability":"view"},{"type":"function","name":"swapToken0ForToken1","inputs":[{"name":"_amountIn","type":"uint256","internalType":"uint256"},{"name":"_minAmountOut","type":"uint256","internalType":"uint256"}],"outputs":[{"name":"amountOut","type":"uint256","internalType":"uint256"}],"stateMutability":"nonpayable"},{"type":"function","name":"swapToken1ForToken0","inputs":[{"name":"_amountIn","type":"uint256","internalType":"uint256"},{"name":"_minAmountOut","type":"uint256","internalType":"uint256"}],"outputs":[{"name":"amountOut","type":"uint256","internalType":"uint256"}],"stateMutability":"nonpayable"},{"type":"function","name":"symbol","inputs":[],"outputs":[{"name":"","type":"string","internalType":"string"}],"stateMutability":"view"},{"type":"function","name":"token0","inputs":[],"outputs":[{"name":"","type":"address","internalType":"contract IERC20"}],"stateMutability":"view"},{"type":"function","name":"token1","inputs":[],"outputs":[{"name":"","type":"address","internalType":"contract IERC20"}],"stateMutability":"view"},{"type":"function","name":"totalSupply","inputs":[],"outputs":[{"name":"","type":"uint256","internalType":"uint256"}],"stateMutability":"view"},{"type":"function","name":"transfer","inputs":[{"name":"to","type":"address","internalType":"address"},{"name":"value","type":"uint256","internalType":"uint256"}],"outputs":[{"name":"","type":"bool","internalType":"bool"}],"stateMutability":"nonpayable"},{"type":"function","name":"transferFrom","inputs":[{"name":"from","type":"address","internalType":"address"},{"name":"to","type":"address","internalType":"address"},{"name":"value","type":"uint256","internalType":"uint256"}],"outputs":[{"name":"","type":"bool","internalType":"bool"}],"stateMutability":"nonpayable"},{"type":"function","name":"transferOwnership","inputs":[{"name":"newOwner","type":"address","internalType":"address"}],"outputs":[],"stateMutability":"nonpayable"},{"type":"function","name":"withdrawFees","inputs":[{"name":"_recipient","type":"address","internalType":"address"}],"outputs":[{"name":"amount0","type":"uint256","internalType":"uint256"},{"name":"amount1","type":"uint256","internalType":"uint256"}],"stateMutability":"nonpayable"},{"type":"event","name":"Approval","inputs":[{"name":"owner","type":"address","indexed":true,"internalType":"address"},{"name":"spender","type":"address","indexed":true,"internalType":"address"},{"name":"value","type":"uint256","indexed":false,"internalType":"uint256"}],"anonymous":false},{"type":"event","name":"FeesWithdrawn","inputs":[{"name":"recipient","type":"address","indexed":true,"internalType":"address"},{"name":"amount0","type":"uint256","indexed":false,"internalType":"uint256"},{"name":"amount1","type":"uint256","indexed":false,"internalType":"uint256"},{"name":"timestamp","type":"uint256","indexed":false,"internalType":"uint256"}],"anonymous":false},{"type":"event","name":"LiquidityAdded","inputs":[{"name":"provider","type":"address","indexed":true,"internalType":"address"},{"name":"amount0","type":"uint256","indexed":false,"internalType":"uint256"},{"name":"amount1","type":"uint256","indexed":false,"internalType":"uint256"},{"name":"lpTokensMinted","type":"uint256","indexed":false,"internalType":"uint256"},{"name":"timestamp","type":"uint256","indexed":false,"internalType":"uint256"}],"anonymous":false},{"type":"event","name":"LiquidityRemoved","inputs":[{"name":"provider","type":"address","indexed":true,"internalType":"address"},{"name":"amount0","type":"uint256","indexed":false,"internalType":"uint256"},{"name":"amount1","type":"uint256","indexed":false,"internalType":"uint256"},{"name":"lpTokensBurned","type":"uint256","indexed":false,"internalType":"uint256"},{"name":"timestamp","type":"uint256","indexed":false,"internalType":"uint256"}],"anonymous":false},{"type":"event","name":"OwnershipTransferred","inputs":[{"name":"previousOwner","type":"address","indexed":true,"internalType":"address"},{"name":"newOwner","type":"address","indexed":true,"internalType":"address"}],"anonymous":false},{"type":"event","name":"Swap","inputs":[{"name":"trader","type":"address","indexed":true,"internalType":"address"},{"name":"tokenIn","type":"address","indexed":true,"internalType":"address"},{"name":"tokenOut","type":"address","indexed":true,"internalType":"address"},{"name":"amountIn","type":"uint256","indexed":false,"internalType":"uint256"},{"name":"amountOut","type":"uint256","indexed":false,"internalType":"uint256"},{"name":"fee","type":"uint256","indexed":false,"internalType":"uint256"},{"name":"timestamp","type":"uint256","indexed":false,"internalType":"uint256"}],"anonymous":false},{"type":"event","name":"Transfer","inputs":[{"name":"from","type":"address","indexed":true,"internalType":"address"},{"name":"to","type":"address","indexed":true,"internalType":"address"},{"name":"value","type":"uint256","indexed":false,"internalType":"uint256"}],"anonymous":false},{"type":"error","name":"ERC20InsufficientAllowance","inputs":[{"name":"spender","type":"address","internalType":"address"},{"name":"allowance","type":"uint256","internalType":"uint256"},{"name":"needed","type":"uint256","internalType":"uint256"}]},{"type":"error","name":"ERC20InsufficientBalance","inputs":[{"name":"sender","type":"address","internalType":"address"},{"name":"balance","type":"uint256","internalType":"uint256"},{"name":"needed","type":"uint256","internalType":"uint256"}]},{"type":"error","name":"ERC20InvalidApprover","inputs":[{"name":"approver","type":"address","internalType":"address"}]},{"type":"error","name":"ERC20InvalidReceiver","inputs":[{"name":"receiver","type":"address","internalType":"address"}]},{"type":"error","name":"ERC20InvalidSender","inputs":[{"name":"sender","type":"address","internalType":"address"}]},{"type":"error","name":"ERC20InvalidSpender","inputs":[{"name":"spender","type":"address","internalType":"address"}]},{"type":"error","name":"IdenticalTokens","inputs":[]},{"type":"error","name":"InsufficientLiquidity","inputs":[]},{"type":"error","name":"InsufficientOutputAmount","inputs":[]},{"type":"error","name":"InvalidReserves","inputs":[]},{"type":"error","name":"InvalidSlippage","inputs":[]},{"type":"error","name":"InvalidTokenAddress","inputs":[]},{"type":"error","name":"OwnableInvalidOwner","inputs":[{"name":"owner","type":"address","internalType":"address"}]},{"type":"error","name":"OwnableUnauthorizedAccount","inputs":[{"name":"account","type":"address","internalType":"address"}]},{"type":"error","name":"PoolNotInitialized","inputs":[]},{"type":"error","name":"ReentrancyGuardReentrantCall","inputs":[]},{"type":"error","name":"SafeERC20FailedOperation","inputs":[{"name":"token","type":"address","internalType":"address"}]},{"type":"error","name":"ZeroAmount","inputs":[]}],"bytecode":{"object":"0x608060405234801561000f575f5ffd5b506040516119e53803806119e583398101604081905261002e91610286565b338282600361003d838261039b565b50600461004a828261039b565b505050600161006361006061015960201b60201c565b90565b556001600160a01b03811661009157604051631e4fbdf760e01b81525f600482015260240160405180910390fd5b61009a8161017d565b506001600160a01b03841615806100b857506001600160a01b038316155b156100d657604051630f58058360e11b815260040160405180910390fd5b826001600160a01b0316846001600160a01b03160361010857604051635c6d7b7360e01b815260040160405180910390fd5b826001600160a01b0316846001600160a01b03161115610126579192915b5050600680546001600160a01b039384166001600160a01b03199182161790915560078054929093169116179055610459565b7f9b779b17422d0df92223018b32b4d1fa46e071723d6817e2486d003becc55f0090565b600580546001600160a01b038381166001600160a01b0319831681179093556040519116919082907f8be0079c531659141344cd1fd0a4f28419497f9722a3daafe3b4186f6b6457e0905f90a35050565b80516001600160a01b03811681146101e4575f5ffd5b919050565b634e487b7160e01b5f52604160045260245ffd5b5f82601f83011261020c575f5ffd5b81516001600160401b03811115610225576102256101e9565b604051601f8201601f19908116603f011681016001600160401b0381118282101715610253576102536101e9565b60405281815283820160200185101561026a575f5ffd5b8160208501602083015e5f918101602001919091529392505050565b5f5f5f5f60808587031215610299575f5ffd5b6102a2856101ce565b93506102b0602086016101ce565b60408601519093506001600160401b038111156102cb575f5ffd5b6102d7878288016101fd565b606087015190935090506001600160401b038111156102f4575f5ffd5b610300878288016101fd565b91505092959194509250565b600181811c9082168061032057607f821691505b60208210810361033e57634e487b7160e01b5f52602260045260245ffd5b50919050565b601f821115610396578282111561039657805f5260205f20601f840160051c602085101561036f57505f5b90810190601f840160051c035f5b81811015610392575f8382015560010161037d565b5050505b505050565b81516001600160401b038111156103b4576103b46101e9565b6103c8816103c2845461030c565b84610344565b6020601f8211600181146103fa575f83156103e35750848201515b5f19600385901b1c1916600184901b178455610452565b5f84815260208120601f198516915b828110156104295787850151825560209485019460019092019101610409565b508482101561044657868401515f19600387901b60f8161c191681555b505060018360011b0184555b5050505050565b61157f806104665f395ff3fe608060405234801561000f575f5ffd5b50600436106101a1575f3560e01c8063715018a6116100f3578063d21220a711610093578063ee39e7a01161006e578063ee39e7a01461038c578063f21c730614610394578063f2fde38b146103a7578063f438c1a9146103ba575f5ffd5b8063d21220a714610338578063db303df71461034b578063dd62ed3e14610354575f5ffd5b80638da5cb5b116100ce5780638da5cb5b1461030457806395d89b411461031557806398d5fdca1461031d578063a9059cbb14610325575f5ffd5b8063715018a6146102d4578063857620e1146102de57806385ffe45f146102f1575f5ffd5b806318160ddd1161015e578063422f104311610139578063422f104314610287578063443cb4bc1461029a5780635a76f25e146102a357806370a08231146102ac575f5ffd5b806318160ddd1461025d57806323b872dd14610265578063313ce56714610278575f5ffd5b8063054d50d4146101a557806306fdde03146101cb5780630902f1ac146101e0578063095ea7b3146101fc5780630dfe16811461021f578063164e68de1461024a575b5f5ffd5b6101b86101b336600461133c565b6103c3565b6040519081526020015b60405180910390f35b6101d36103f9565b6040516101c29190611365565b6008546009545b604080519283526020830191909152016101c2565b61020f61020a3660046113b5565b610489565b60405190151581526020016101c2565b600654610232906001600160a01b031681565b6040516001600160a01b0390911681526020016101c2565b6101e76102583660046113dd565b6104a2565b6002546101b8565b61020f6102733660046113f6565b610570565b604051601281526020016101c2565b6101b861029536600461133c565b610593565b6101b860085481565b6101b860095481565b6101b86102ba3660046113dd565b6001600160a01b03165f9081526020819052604090205490565b6102dc610749565b005b6101e76102ec36600461133c565b61075c565b6101b86102ff366004611430565b6108e2565b6005546001600160a01b0316610232565b6101d3610ac2565b6101b8610ad1565b61020f6103333660046113b5565b610b1b565b600754610232906001600160a01b031681565b6101b8600b5481565b6101b8610362366004611450565b6001600160a01b039182165f90815260016020908152604080832093909416825291909152205490565b6101b8610b28565b6101b86103a2366004611430565b610b39565b6102dc6103b53660046113dd565b610cfd565b6101b8600a5481565b5f835f036103e457604051631f2a200560e01b815260040160405180910390fd5b6103ef848484610d3f565b90505b9392505050565b60606003805461040890611481565b80601f016020809104026020016040519081016040528092919081815260200182805461043490611481565b801561047f5780601f106104565761010080835404028352916020019161047f565b820191905f5260205f20905b81548152906001019060200180831161046257829003601f168201915b5050505050905090565b5f33610496818585610d8e565b60019150505b92915050565b5f5f6104ac610da0565b6001600160a01b0383166104d357604051630f58058360e11b815260040160405180910390fd5b5050600a8054600b80545f9384905592905590811561050357600654610503906001600160a01b03168484610dcd565b801561052057600754610520906001600160a01b03168483610dcd565b6040805183815260208101839052428183015290516001600160a01b038516917f2f7b02703a7c602588420b2be2f0a441b52632acdfcb11933bfc01e6226bd966919081900360600190a2915091565b5f3361057d858285610e02565b610588858585610e7e565b506001949350505050565b5f61059c610edb565b8315806105a7575082155b156105c557604051631f2a200560e01b815260040160405180910390fd5b5f6105cf60025490565b9050805f03610614576105ea6105e585876114cd565b610ef6565b91506103e882101561060f5760405163bb55fd2760e01b815260040160405180910390fd5b61065f565b6008545f9061062383886114cd565b61062d91906114e4565b90505f600954838761063f91906114cd565b61064991906114e4565b9050808210610658578061065a565b815b935050505b828210156106805760405163334ee9a160e01b815260040160405180910390fd5b8460085f8282546106919190611503565b925050819055508360095f8282546106a99190611503565b909155506106b990503383610f53565b6006546106d1906001600160a01b0316333088610f8b565b6007546106e9906001600160a01b0316333087610f8b565b604080518681526020810186905290810183905242606082015233907f08d7621a09a86934f387f650007fa17f2413759ca5f2ae0681161b371583a5f59060800160405180910390a2506103f260015f51602061152a5f395f51905f5255565b610751610da0565b61075a5f610fc1565b565b5f5f610766610edb565b845f0361078657604051631f2a200560e01b815260040160405180910390fd5b5f61079060025490565b9050805f036107b25760405163bb55fd2760e01b815260040160405180910390fd5b80600854876107c191906114cd565b6107cb91906114e4565b925080600954876107dc91906114cd565b6107e691906114e4565b9150848310806107f557508382105b156108135760405163334ee9a160e01b815260040160405180910390fd5b8260085f8282546108249190611516565b925050819055508160095f82825461083c9190611516565b9091555061084c90503387611012565b600654610863906001600160a01b03163385610dcd565b60075461087a906001600160a01b03163384610dcd565b604080518481526020810184905290810187905242606082015233907f8598e6b147330d38243f9c4cd33d61e208b9015719e977086fa42a0f73b1462b9060800160405180910390a2506108da60015f51602061152a5f395f51905f5255565b935093915050565b5f6108eb610edb565b825f0361090b57604051631f2a200560e01b815260040160405180910390fd5b600854158061091a5750600954155b156109385760405163486aa30760e01b815260040160405180910390fd5b5f6103e86109476003866114cd565b61095191906114e4565b90505f61095e8286611516565b905061096f81600954600854610d3f565b9250825f03610991576040516342301c2360e01b815260040160405180910390fd5b838310156109b25760405163334ee9a160e01b815260040160405180910390fd5b6008548311156109d55760405163bb55fd2760e01b815260040160405180910390fd5b8460095f8282546109e69190611503565b925050819055508260085f8282546109fe9190611516565b9250508190555081600b5f828254610a169190611503565b9091555050600754610a33906001600160a01b0316333088610f8b565b600654610a4a906001600160a01b03163385610dcd565b60065460075460408051888152602081018790529081018590524260608201526001600160a01b03928316929091169033907f0874b2d545cb271cdbda4e093020c452328b24af12382ed62c4d00f5c26709db906080015b60405180910390a4505061049c60015f51602061152a5f395f51905f5255565b60606004805461040890611481565b5f6008545f03610af457604051633dce448b60e11b815260040160405180910390fd5b600854600954610b0c90670de0b6b3a76400006114cd565b610b1691906114e4565b905090565b5f33610496818585610e7e565b5f600954600854610b1691906114cd565b5f610b42610edb565b825f03610b6257604051631f2a200560e01b815260040160405180910390fd5b6008541580610b715750600954155b15610b8f5760405163486aa30760e01b815260040160405180910390fd5b5f6103e8610b9e6003866114cd565b610ba891906114e4565b90505f610bb58286611516565b9050610bc681600854600954610d3f565b9250825f03610be8576040516342301c2360e01b815260040160405180910390fd5b83831015610c095760405163334ee9a160e01b815260040160405180910390fd5b600954831115610c2c5760405163bb55fd2760e01b815260040160405180910390fd5b8460085f828254610c3d9190611503565b925050819055508260095f828254610c559190611516565b9250508190555081600a5f828254610c6d9190611503565b9091555050600654610c8a906001600160a01b0316333088610f8b565b600754610ca1906001600160a01b03163385610dcd565b60075460065460408051888152602081018790529081018590524260608201526001600160a01b03928316929091169033907f0874b2d545cb271cdbda4e093020c452328b24af12382ed62c4d00f5c26709db90608001610aa2565b610d05610da0565b6001600160a01b038116610d3357604051631e4fbdf760e01b81525f60048201526024015b60405180910390fd5b610d3c81610fc1565b50565b5f831580610d4b575082155b80610d54575081155b15610d6057505f6103f2565b5f610d6b83866114cd565b90505f610d788686611503565b9050610d8481836114e4565b9695505050505050565b610d9b8383836001611046565b505050565b6005546001600160a01b0316331461075a5760405163118cdaa760e01b8152336004820152602401610d2a565b610dda8383836001611118565b610d9b57604051635274afe760e01b81526001600160a01b0384166004820152602401610d2a565b6001600160a01b038381165f908152600160209081526040808320938616835292905220545f19811015610e785781811015610e6a57604051637dc7a0d960e11b81526001600160a01b03841660048201526024810182905260448101839052606401610d2a565b610e7884848484035f611046565b50505050565b6001600160a01b038316610ea757604051634b637e8f60e11b81525f6004820152602401610d2a565b6001600160a01b038216610ed05760405163ec442f0560e01b81525f6004820152602401610d2a565b610d9b83838361117a565b610ee36112a0565b60025f51602061152a5f395f51905f5255565b5f815f03610f0557505f919050565b5f6002610f13846001611503565b610f1d91906114e4565b9050825b808210156103f2575080600281610f3881876114e4565b610f429190611503565b610f4c91906114e4565b9150610f21565b6001600160a01b038216610f7c5760405163ec442f0560e01b81525f6004820152602401610d2a565b610f875f838361117a565b5050565b610f998484848460016112cf565b610e7857604051635274afe760e01b81526001600160a01b0385166004820152602401610d2a565b600580546001600160a01b038381166001600160a01b0319831681179093556040519116919082907f8be0079c531659141344cd1fd0a4f28419497f9722a3daafe3b4186f6b6457e0905f90a35050565b6001600160a01b03821661103b57604051634b637e8f60e11b81525f6004820152602401610d2a565b610f87825f8361117a565b6001600160a01b03841661106f5760405163e602df0560e01b81525f6004820152602401610d2a565b6001600160a01b03831661109857604051634a1406b160e11b81525f6004820152602401610d2a565b6001600160a01b038085165f9081526001602090815260408083209387168352929052208290558015610e7857826001600160a01b0316846001600160a01b03167f8c5be1e5ebec7d5bd14f71427d1e84f3dd0314c0f7b2291e5b200ac8c7c3b9258460405161110a91815260200190565b60405180910390a350505050565b60405163a9059cbb60e01b5f8181526001600160a01b038616600452602485905291602083604481808b5af1925060015f5114831661116e578383151615611162573d5f823e3d81fd5b5f873b113d1516831692505b60405250949350505050565b6001600160a01b0383166111a4578060025f8282546111999190611503565b909155506112149050565b6001600160a01b0383165f90815260208190526040902054818110156111f65760405163391434e360e21b81526001600160a01b03851660048201526024810182905260448101839052606401610d2a565b6001600160a01b0384165f9081526020819052604090209082900390555b6001600160a01b0382166112305760028054829003905561124e565b6001600160a01b0382165f9081526020819052604090208054820190555b816001600160a01b0316836001600160a01b03167fddf252ad1be2c89b69c2b068fc378daa952ba7f163c4a11628f55a4df523b3ef8360405161129391815260200190565b60405180910390a3505050565b5f51602061152a5f395f51905f525460020361075a57604051633ee5aeb560e01b815260040160405180910390fd5b6040516323b872dd60e01b5f8181526001600160a01b038781166004528616602452604485905291602083606481808c5af1925060015f5114831661132b57838315161561131f573d5f823e3d81fd5b5f883b113d1516831692505b604052505f60605295945050505050565b5f5f5f6060848603121561134e575f5ffd5b505081359360208301359350604090920135919050565b602081525f82518060208401528060208501604085015e5f604082850101526040601f19601f83011684010191505092915050565b80356001600160a01b03811681146113b0575f5ffd5b919050565b5f5f604083850312156113c6575f5ffd5b6113cf8361139a565b946020939093013593505050565b5f602082840312156113ed575f5ffd5b6103f28261139a565b5f5f5f60608486031215611408575f5ffd5b6114118461139a565b925061141f6020850161139a565b929592945050506040919091013590565b5f5f60408385031215611441575f5ffd5b50508035926020909101359150565b5f5f60408385031215611461575f5ffd5b61146a8361139a565b91506114786020840161139a565b90509250929050565b600181811c9082168061149557607f821691505b6020821081036114b357634e487b7160e01b5f52602260045260245ffd5b50919050565b634e487b7160e01b5f52601160045260245ffd5b808202811582820484141761049c5761049c6114b9565b5f826114fe57634e487b7160e01b5f52601260045260245ffd5b500490565b8082018082111561049c5761049c6114b9565b8181038181111561049c5761049c6114b956fe9b779b17422d0df92223018b32b4d1fa46e071723d6817e2486d003becc55f00a2646970667358221220aea2a8c9ca65c6a2eb585531435f126a2a73202efdb8d49306e2b0458cf206ba64736f6c63430008210033","linkReferences":{}},"methodIdentifiers":{"addLiquidity(uint256,uint256,uint256)":"422f1043","allowance(address,address)":"dd62ed3e","approve(address,uint256)":"095ea7b3","balanceOf(address)":"70a08231","decimals()":"313ce567","feesAccumulatedToken0()":"f438c1a9","feesAccumulatedToken1()":"db303df7","getAmountOut(uint256,uint256,uint256)":"054d50d4","getK()":"ee39e7a0","getPrice()":"98d5fdca","getReserves()":"0902f1ac","name()":"06fdde03","owner()":"8da5cb5b","removeLiquidity(uint256,uint256,uint256)":"857620e1","renounceOwnership()":"715018a6","reserve0()":"443cb4bc","reserve1()":"5a76f25e","swapToken0ForToken1(uint256,uint256)":"f21c7306","swapToken1ForToken0(uint256,uint256)":"85ffe45f","symbol()":"95d89b41","token0()":"0dfe1681","token1()":"d21220a7","totalSupply()":"18160ddd","transfer(address,uint256)":"a9059cbb","transferFrom(address,address,uint256)":"23b872dd","transferOwnership(address)":"f2fde38b","withdrawFees(address)":"164e68de"},"id":1}