{"abi":[{"type":"constructor","inputs":[{"name":"initialOwner","type":"address","internalType":"address"}],"stateMutability":"nonpayable"},{"type":"function","name":"CLOCK_MODE","inputs":[],"outputs":[{"name":"","type":"string","internalType":"string"}],"stateMutability":"view"},{"type":"function","name":"DOMAIN_SEPARATOR","inputs":[],"outputs":[{"name":"","type":"bytes32","internalType":"bytes32"}],"stateMutability":"view"},{"type":"function","name":"allowance","inputs":[{"name":"owner","type":"address","internalType":"address"},{"name":"spender","type":"address","internalType":"address"}],"outputs":[{"name":"","type":"uint256","internalType":"uint256"}],"stateMutability":"view"},{"type":"function","name":"approve","inputs":[{"name":"spender","type":"address","internalType":"address"},{"name":"value","type":"uint256","internalType":"uint256"}],"outputs":[{"name":"","type":"bool","internalType":"bool"}],"stateMutability":"nonpayable"},{"type":"function","name":"balanceOf","inputs":[{"name":"account","type":"address","internalType":"address"}],"outputs":[{"name":"","type":"uint256","internalType":"uint256"}],"stateMutability":"view"},{"type":"function","name":"burn","inputs":[{"name":"from","type":"address","internalType":"address"},{"name":"amount","type":"uint256","internalType":"uint256"}],"outputs":[],"stateMutability":"nonpayable"},{"type":"function","name":"checkpoints","inputs":[{"name":"account","type":"address","internalType":"address"},{"name":"pos","type":"uint32","internalType":"uint32"}],"outputs":[{"name":"","type":"tuple","internalType":"struct Checkpoints.Checkpoint208","components":[{"name":"_key","type":"uint48","internalType":"uint48"},{"name":"_value","type":"uint208","internalType":"uint208"}]}],"stateMutability":"view"},{"type":"function","name":"clock","inputs":[],"outputs":[{"name":"","type":"uint48","internalType":"uint48"}],"stateMutability":"view"},{"type":"function","name":"decimals","inputs":[],"outputs":[{"name":"","type":"uint8","internalType":"uint8"}],"stateMutability":"view"},{"type":"function","name":"delegate","inputs":[{"name":"delegatee","type":"address","internalType":"address"}],"outputs":[],"stateMutability":"nonpayable"},{"type":"function","name":"delegateBySig","inputs":[{"name":"delegatee","type":"address","internalType":"address"},{"name":"nonce","type":"uint256","internalType":"uint256"},{"name":"expiry","type":"uint256","internalType":"uint256"},{"name":"v","type":"uint8","internalType":"uint8"},{"name":"r","type":"bytes32","internalType":"bytes32"},{"name":"s","type":"bytes32","internalType":"bytes32"}],"outputs":[],"stateMutability":"nonpayable"},{"type":"function","name":"delegates","inputs":[{"name":"account","type":"address","internalType":"address"}],"outputs":[{"name":"","type":"address","internalType":"address"}],"stateMutability":"view"},{"type":"function","name":"eip712Domain","inputs":[],"outputs":[{"name":"fields","type":"bytes1","internalType":"bytes1"},{"name":"name","type":"string","internalType":"string"},{"name":"version","type":"string","internalType":"string"},{"name":"chainId","type":"uint256","internalType":"uint256"},{"name":"verifyingContract","type":"address","internalType":"address"},{"name":"salt","type":"bytes32","internalType":"bytes32"},{"name":"extensions","type":"uint256[]","internalType":"uint256[]"}],"stateMutability":"view"},{"type":"function","name":"getPastTotalSupply","inputs":[{"name":"timepoint","type":"uint256","internalType":"uint256"}],"outputs":[{"name":"","type":"uint256","internalType":"uint256"}],"stateMutability":"view"},{"type":"function","name":"getPastVotes","inputs":[{"name":"account","type":"address","internalType":"address"},{"name":"timepoint","type":"uint256","internalType":"uint256"}],"outputs":[{"name":"","type":"uint256","internalType":"uint256"}],"stateMutability":"view"},{"type":"function","name":"getVotes","inputs":[{"name":"account","type":"address","internalType":"address"}],"outputs":[{"name":"","type":"uint256","internalType":"uint256"}],"stateMutability":"view"},{"type":"function","name":"mint","inputs":[{"name":"to","type":"address","internalType":"address"},{"name":"amount","type":"uint256","internalType":"uint256"}],"outputs":[],"stateMutability":"nonpayable"},{"type":"function","name":"name","inputs":[],"outputs":[{"name":"","type":"string","internalType":"string"}],"stateMutability":"view"},{"type":"function","name":"nonces","inputs":[{"name":"owner","type":"address","internalType":"address"}],"outputs":[{"name":"","type":"uint256","internalType":"uint256"}],"stateMutability":"view"},{"type":"function","name":"numCheckpoints","inputs":[{"name":"account","type":"address","internalType":"address"}],"outputs":[{"name":"","type":"uint32","internalType":"uint32"}],"stateMutability":"view"},{"type":"function","name":"owner","inputs":[],"outputs":[{"name":"","type":"address","internalType":"address"}],"stateMutability":"view"},{"type":"function","name":"permit","inputs":[{"name":"owner","type":"address","internalType":"address"},{"name":"spender","type":"address","internalType":"address"},{"name":"value","type":"uint256","internalType":"uint256"},{"name":"deadline","type":"uint256","internalType":"uint256"},{"name":"v","type":"uint8","internalType":"uint8"},{"name":"r","type":"bytes32","internalType":"bytes32"},{"name":"s","type":"bytes32","internalType":"bytes32"}],"outputs":[],"stateMutability":"nonpayable"},{"type":"function","name":"renounceOwnership","inputs":[],"outputs":[],"stateMutability":"nonpayable"},{"type":"function","name":"symbol","inputs":[],"outputs":[{"name":"","type":"string","internalType":"string"}],"stateMutability":"view"},{"type":"function","name":"totalSupply","inputs":[],"outputs":[{"name":"","type":"uint256","internalType":"uint256"}],"stateMutability":"view"},{"type":"function","name":"transfer","inputs":[{"name":"to","type":"address","internalType":"address"},{"name":"value","type":"uint256","internalType":"uint256"}],"outputs":[{"name":"","type":"bool","internalType":"bool"}],"stateMutability":"nonpayable"},{"type":"function","name":"transferFrom","inputs":[{"name":"from","type":"address","internalType":"address"},{"name":"to","type":"address","internalType":"address"},{"name":"value","type":"uint256","internalType":"uint256"}],"outputs":[{"name":"","type":"bool","internalType":"bool"}],"stateMutability":"nonpayable"},{"type":"function","name":"transferOwnership","inputs":[{"name":"newOwner","type":"address","internalType":"address"}],"outputs":[],"stateMutability":"nonpayable"},{"type":"event","name":"Approval","inputs":[{"name":"owner","type":"address","indexed":true,"internalType":"address"},{"name":"spender","type":"address","indexed":true,"internalType":"address"},{"name":"value","type":"uint256","indexed":false,"internalType":"uint256"}],"anonymous":false},{"type":"event","name":"DelegateChanged","inputs":[{"name":"delegator","type":"address","indexed":true,"internalType":"address"},{"name":"fromDelegate","type":"address","indexed":true,"internalType":"address"},{"name":"toDelegate","type":"address","indexed":true,"internalType":"address"}],"anonymous":false},{"type":"event","name":"DelegateVotesChanged","inputs":[{"name":"delegate","type":"address","indexed":true,"internalType":"address"},{"name":"previousVotes","type":"uint256","indexed":false,"internalType":"uint256"},{"name":"newVotes","type":"uint256","indexed":false,"internalType":"uint256"}],"anonymous":false},{"type":"event","name":"EIP712DomainChanged","inputs":[],"anonymous":false},{"type":"event","name":"OwnershipTransferred","inputs":[{"name":"previousOwner","type":"address","indexed":true,"internalType":"address"},{"name":"newOwner","type":"address","indexed":true,"internalType":"address"}],"anonymous":false},{"type":"event","name":"Transfer","inputs":[{"name":"from","type":"address","indexed":true,"internalType":"address"},{"name":"to","type":"address","indexed":true,"internalType":"address"},{"name":"value","type":"uint256","indexed":false,"internalType":"uint256"}],"anonymous":false},{"type":"error","name":"CheckpointUnorderedInsertion","inputs":[]},{"type":"error","name":"ECDSAInvalidSignature","inputs":[]},{"type":"error","name":"ECDSAInvalidSignatureLength","inputs":[{"name":"length","type":"uint256","internalType":"uint256"}]},{"type":"error","name":"ECDSAInvalidSignatureS","inputs":[{"name":"s","type":"bytes32","internalType":"bytes32"}]},{"type":"error","name":"ERC20ExceededSafeSupply","inputs":[{"name":"increasedSupply","type":"uint256","internalType":"uint256"},{"name":"cap","type":"uint256","internalType":"uint256"}]},{"type":"error","name":"ERC20InsufficientAllowance","inputs":[{"name":"spender","type":"address","internalType":"address"},{"name":"allowance","type":"uint256","internalType":"uint256"},{"name":"needed","type":"uint256","internalType":"uint256"}]},{"type":"error","name":"ERC20InsufficientBalance","inputs":[{"name":"sender","type":"address","internalType":"address"},{"name":"balance","type":"uint256","internalType":"uint256"},{"name":"needed","type":"uint256","internalType":"uint256"}]},{"type":"error","name":"ERC20InvalidApprover","inputs":[{"name":"approver","type":"address","internalType":"address"}]},{"type":"error","name":"ERC20InvalidReceiver","inputs":[{"name":"receiver","type":"address","internalType":"address"}]},{"type":"error","name":"ERC20InvalidSender","inputs":[{"name":"sender","type":"address","internalType":"address"}]},{"type":"error","name":"ERC20InvalidSpender","inputs":[{"name":"spender","type":"address","internalType":"address"}]},{"type":"error","name":"ERC2612ExpiredSignature","inputs":[{"name":"deadline","type":"uint256","internalType":"uint256"}]},{"type":"error","name":"ERC2612InvalidSigner","inputs":[{"name":"signer","type":"address","internalType":"address"},{"name":"owner","type":"address","internalType":"address"}]},{"type":"error","name":"ERC5805FutureLookup","inputs":[{"name":"timepoint","type":"uint256","internalType":"uint256"},{"name":"clock","type":"uint48","internalType":"uint48"}]},{"type":"error","name":"ERC6372InconsistentClock","inputs":[]},{"type":"error","name":"InvalidAccountNonce","inputs":[{"name":"account","type":"address","internalType":"address"},{"name":"currentNonce","type":"uint256","internalType":"uint256"}]},{"type":"error","name":"InvalidShortString","inputs":[]},{"type":"error","name":"OwnableInvalidOwner","inputs":[{"name":"owner","type":"address","internalType":"address"}]},{"type":"error","name":"OwnableUnauthorizedAccount","inputs":[{"name":"account","type":"address","internalType":"address"}]},{"type":"error","name":"SafeCastOverflowedUintDowncast","inputs":[{"name":"bits","type":"uint8","internalType":"uint8"},{"name":"value","type":"uint256","internalType":"uint256"}]},{"type":"error","name":"StringTooLong","inputs":[{"name":"str","type":"string","internalType":"string"}]},{"type":"error","name":"VotesExpiredSignature","inputs":[{"name":"expiry","type":"uint256","internalType":"uint256"}]}],"bytecode":{"object":"0x610160604052348015610010575f5ffd5b50604051612b52380380612b5283398101604081905261002f916108d9565b806040518060400160405280601081526020016f23b7bb32b93730b731b2902a37b5b2b760811b81525080604051806040016040528060018152602001603160f81b8152506040518060400160405280601081526020016f23b7bb32b93730b731b2902a37b5b2b760811b8152506040518060400160405280600381526020016223a7ab60e91b81525081600390816100c891906109a1565b5060046100d582826109a1565b506100e5915083905060056101ea565b610120526100f48160066101ea565b61014052815160208084019190912060e052815190820120610100524660a05261018060e05161010051604080517f8b73c3c69bb8fe3d512ecc4cf759cc79239f7b179b0ffacaa9a75d522b39400f60208201529081019290925260608201524660808201523060a08201525f9060c00160405160208183030381529060405280519060200120905090565b60805250503060c052506001600160a01b0381166101b857604051631e4fbdf760e01b81525f60048201526024015b60405180910390fd5b6101c18161021c565b506101e4816101d26012600a610b4e565b6101df90620f4240610b5c565b61026d565b50610c2f565b5f602083511015610205576101fe836102a5565b9050610216565b8161021084826109a1565b5060ff90505b92915050565b600b80546001600160a01b038381166001600160a01b0319831681179093556040519116919082907f8be0079c531659141344cd1fd0a4f28419497f9722a3daafe3b4186f6b6457e0905f90a35050565b6001600160a01b0382166102965760405163ec442f0560e01b81525f60048201526024016101af565b6102a15f83836102e2565b5050565b5f5f829050601f815111156102cf578260405163305a27a960e01b81526004016101af9190610b73565b80516102da82610ba8565b179392505050565b6102ed8383836102f2565b505050565b6102fd838383610358565b6001600160a01b03831661034d575f61031560025490565b90506001600160d01b038082111561034a57604051630e58ae9360e11b815260048101839052602481018290526044016101af565b50505b6102ed83838361047e565b6001600160a01b038316610382578060025f8282546103779190610bcb565b909155506103f29050565b6001600160a01b0383165f90815260208190526040902054818110156103d45760405163391434e360e21b81526001600160a01b038516600482015260248101829052604481018390526064016101af565b6001600160a01b0384165f9081526020819052604090209082900390555b6001600160a01b03821661040e5760028054829003905561042c565b6001600160a01b0382165f9081526020819052604090208054820190555b816001600160a01b0316836001600160a01b03167fddf252ad1be2c89b69c2b068fc378daa952ba7f163c4a11628f55a4df523b3ef8360405161047191815260200190565b60405180910390a3505050565b6001600160a01b0383166104ac576104a9600a61096561050660201b176104a484610518565b61054f565b50505b6001600160a01b0382166104d5576104d2600a61097061058460201b176104a484610518565b50505b6001600160a01b038381165f908152600860205260408082205485841683529120546102ed9291821691168361058f565b5f6105118284610bde565b9392505050565b5f6001600160d01b0382111561054b576040516306dfcc6560e41b815260d06004820152602481018390526044016101af565b5090565b5f8061057761055c6106df565b61056f610568886106ed565b868860201c565b879190610734565b915091505b935093915050565b5f6105118284610bfd565b816001600160a01b0316836001600160a01b0316141580156105b057505f81115b156102ed576001600160a01b03831615610648576001600160a01b0383165f908152600960209081526040822082916105f69190610584901b610970176104a486610518565b6001600160d01b031691506001600160d01b03169150846001600160a01b03165f516020612b325f395f51905f52838360405161063d929190918252602082015260400190565b60405180910390a250505b6001600160a01b038216156102ed576001600160a01b0382165f908152600960209081526040822082916106899190610506901b610965176104a486610518565b6001600160d01b031691506001600160d01b03169150836001600160a01b03165f516020612b325f395f51905f5283836040516106d0929190918252602082015260400190565b60405180910390a25050505050565b5f6106e8610741565b905090565b80545f90801561072c5761071383610706600184610c1c565b5f91825260209091200190565b54660100000000000090046001600160d01b0316610511565b5f9392505050565b5f8061057785858561074b565b5f6106e8436108a7565b82545f908190801561084a575f61076787610706600185610c1c565b805490915065ffffffffffff80821691660100000000000090046001600160d01b03169088168211156107ad57604051632520601d60e01b815260040160405180910390fd5b8765ffffffffffff168265ffffffffffff16036107e957825465ffffffffffff1666010000000000006001600160d01b0389160217835561083c565b6040805180820190915265ffffffffffff808a1682526001600160d01b03808a1660208085019182528d54600181018f555f8f815291909120945191519092166601000000000000029216919091179101555b945085935061057c92505050565b50506040805180820190915265ffffffffffff80851682526001600160d01b0380851660208085019182528854600181018a555f8a815291822095519251909316660100000000000002919093161792019190915590508161057c565b5f65ffffffffffff82111561054b576040516306dfcc6560e41b815260306004820152602481018390526044016101af565b5f602082840312156108e9575f5ffd5b81516001600160a01b0381168114610511575f5ffd5b634e487b7160e01b5f52604160045260245ffd5b600181811c9082168061092757607f821691505b60208210810361094557634e487b7160e01b5f52602260045260245ffd5b50919050565b601f8211156102ed57828211156102ed57805f5260205f20601f840160051c602085101561097657505f5b90810190601f840160051c035f5b81811015610999575f83820155600101610984565b505050505050565b81516001600160401b038111156109ba576109ba6108ff565b6109ce816109c88454610913565b8461094b565b6020601f821160018114610a00575f83156109e95750848201515b5f19600385901b1c1916600184901b178455610a58565b5f84815260208120601f198516915b82811015610a2f5787850151825560209485019460019092019101610a0f565b5084821015610a4c57868401515f19600387901b60f8161c191681555b505060018360011b0184555b5050505050565b634e487b7160e01b5f52601160045260245ffd5b6001815b600184111561057c57808504811115610a9257610a92610a5f565b6001841615610aa057908102905b60019390931c928002610a77565b5f82610abc57506001610216565b81610ac857505f610216565b8160018114610ade5760028114610ae857610b04565b6001915050610216565b60ff841115610af957610af9610a5f565b50506001821b610216565b5060208310610133831016604e8410600b8410161715610b27575081810a610216565b610b335f198484610a73565b805f1904821115610b4657610b46610a5f565b029392505050565b5f61051160ff841683610aae565b808202811582820484141761021657610216610a5f565b602081525f82518060208401528060208501604085015e5f604082850101526040601f19601f83011684010191505092915050565b80516020808301519190811015610945575f1960209190910360031b1b16919050565b8082018082111561021657610216610a5f565b6001600160d01b03818116838216019081111561021657610216610a5f565b6001600160d01b03828116828216039081111561021657610216610a5f565b8181038181111561021657610216610a5f565b60805160a05160c05160e051610100516101205161014051611eb2610c805f395f610e2c01525f610dff01525f610b3f01525f610b1701525f610a7201525f610a9c01525f610ac60152611eb25ff3fe608060405234801561000f575f5ffd5b50600436106101bb575f3560e01c80637ecebe00116100f35780639dc29fac11610093578063d505accf1161006e578063d505accf146103df578063dd62ed3e146103f2578063f1127ed81461042a578063f2fde38b14610469575f5ffd5b80639dc29fac146103a6578063a9059cbb146103b9578063c3cda520146103cc575f5ffd5b80638e539e8c116100ce5780638e539e8c1461035957806391ddadf41461036c57806395d89b411461038b5780639ab24eb014610393575f5ffd5b80637ecebe001461031a57806384b0196e1461032d5780638da5cb5b14610348575f5ffd5b806340c10f191161015e5780635c19a95c116101395780635c19a95c146102af5780636fcfff45146102c257806370a08231146102ea578063715018a614610312575f5ffd5b806340c10f191461024f5780634bf5d7e914610264578063587cde1e1461026c575f5ffd5b806323b872dd1161019957806323b872dd14610212578063313ce567146102255780633644e515146102345780633a46b1a81461023c575f5ffd5b806306fdde03146101bf578063095ea7b3146101dd57806318160ddd14610200575b5f5ffd5b6101c761047c565b6040516101d49190611b03565b60405180910390f35b6101f06101eb366004611b30565b61050c565b60405190151581526020016101d4565b6002545b6040519081526020016101d4565b6101f0610220366004611b58565b610525565b604051601281526020016101d4565b610204610548565b61020461024a366004611b30565b610556565b61026261025d366004611b30565b610590565b005b6101c76105a6565b61029761027a366004611b92565b6001600160a01b039081165f908152600860205260409020541690565b6040516001600160a01b0390911681526020016101d4565b6102626102bd366004611b92565b61061e565b6102d56102d0366004611b92565b610629565b60405163ffffffff90911681526020016101d4565b6102046102f8366004611b92565b6001600160a01b03165f9081526020819052604090205490565b610262610633565b610204610328366004611b92565b610646565b610335610650565b6040516101d49796959493929190611bab565b600b546001600160a01b0316610297565b610204610367366004611c41565b610692565b6103746106b6565b60405165ffffffffffff90911681526020016101d4565b6101c76106bf565b6102046103a1366004611b92565b6106ce565b6102626103b4366004611b30565b6106ee565b6101f06103c7366004611b30565b610700565b6102626103da366004611c68565b61070d565b6102626103ed366004611cbc565b6107ce565b610204610400366004611d22565b6001600160a01b039182165f90815260016020908152604080832093909416825291909152205490565b61043d610438366004611d53565b610904565b60408051825165ffffffffffff1681526020928301516001600160d01b031692810192909252016101d4565b610262610477366004611b92565b610928565b60606003805461048b90611d90565b80601f01602080910402602001604051908101604052809291908181526020018280546104b790611d90565b80156105025780601f106104d957610100808354040283529160200191610502565b820191905f5260205f20905b8154815290600101906020018083116104e557829003601f168201915b5050505050905090565b5f3361051981858561097b565b60019150505b92915050565b5f3361053285828561098d565b61053d858585610a09565b506001949350505050565b5f610551610a66565b905090565b5f61058061056383610b8f565b6001600160a01b0385165f90815260096020526040902090610bdd565b6001600160d01b03169392505050565b610598610c8d565b6105a28282610cba565b5050565b60606105b0610cee565b65ffffffffffff166105c06106b6565b65ffffffffffff16146105e6576040516301bfc1c560e61b815260040160405180910390fd5b5060408051808201909152601d81527f6d6f64653d626c6f636b6e756d6265722666726f6d3d64656661756c74000000602082015290565b336105a28183610cf8565b5f61051f82610d69565b61063b610c8d565b6106445f610d8a565b565b5f61051f82610ddb565b5f6060805f5f5f6060610661610df8565b610669610e25565b604080515f80825260208201909252600f60f81b9b939a50919850469750309650945092509050565b5f6106a761069f83610b8f565b600a90610bdd565b6001600160d01b031692915050565b5f610551610cee565b60606004805461048b90611d90565b6001600160a01b0381165f9081526009602052604081206106a790610e52565b6106f6610c8d565b6105a28282610e89565b5f33610519818585610a09565b8342111561073657604051632341d78760e11b8152600481018590526024015b60405180910390fd5b604080517fe48329057bfd03d55e49b547132e39cffd9c1820ad7b9d4c5307691425d15adf60208201526001600160a01b0388169181019190915260608101869052608081018590525f906107af906107a79060a00160405160208183030381529060405280519060200120610ebd565b858585610ee9565b90506107bb8187610f15565b6107c58188610cf8565b50505050505050565b834211156107f25760405163313c898160e11b81526004810185905260240161072d565b5f7f6e71edae12b1b97f4d1f60370fef10105fa2faae0126114a169c64845d6126c988888861083d8c6001600160a01b03165f90815260076020526040902080546001810190915590565b6040805160208101969096526001600160a01b0394851690860152929091166060840152608083015260a082015260c0810186905260e0016040516020818303038152906040528051906020012090505f61089782610ebd565b90505f6108a682878787610ee9565b9050896001600160a01b0316816001600160a01b0316146108ed576040516325c0072360e11b81526001600160a01b0380831660048301528b16602482015260440161072d565b6108f88a8a8a61097b565b50505050505050505050565b604080518082019091525f80825260208201526109218383610f67565b9392505050565b610930610c8d565b6001600160a01b03811661095957604051631e4fbdf760e01b81525f600482015260240161072d565b61096281610d8a565b50565b5f6109218284611ddc565b5f6109218284611dfb565b6109888383836001610f9b565b505050565b6001600160a01b038381165f908152600160209081526040808320938616835292905220545f19811015610a0357818110156109f557604051637dc7a0d960e11b81526001600160a01b0384166004820152602481018290526044810183905260640161072d565b610a0384848484035f610f9b565b50505050565b6001600160a01b038316610a3257604051634b637e8f60e11b81525f600482015260240161072d565b6001600160a01b038216610a5b5760405163ec442f0560e01b81525f600482015260240161072d565b61098883838361106d565b5f306001600160a01b037f000000000000000000000000000000000000000000000000000000000000000016148015610abe57507f000000000000000000000000000000000000000000000000000000000000000046145b15610ae857507f000000000000000000000000000000000000000000000000000000000000000090565b610551604080517f8b73c3c69bb8fe3d512ecc4cf759cc79239f7b179b0ffacaa9a75d522b39400f60208201527f0000000000000000000000000000000000000000000000000000000000000000918101919091527f000000000000000000000000000000000000000000000000000000000000000060608201524660808201523060a08201525f9060c00160405160208183030381529060405280519060200120905090565b5f5f610b996106b6565b90508065ffffffffffff168310610bd457604051637669fc0f60e11b81526004810184905265ffffffffffff8216602482015260440161072d565b61092183611078565b81545f9081816005811115610c39575f610bf6846110ae565b610c009085611e1a565b5f8881526020902090915081015465ffffffffffff9081169087161015610c2957809150610c37565b610c34816001611e2d565b92505b505b5f610c4687878585611206565b90508015610c8057610c6a87610c5d600184611e1a565b5f91825260209091200190565b54600160301b90046001600160d01b0316610c82565b5f5b979650505050505050565b600b546001600160a01b031633146106445760405163118cdaa760e01b815233600482015260240161072d565b6001600160a01b038216610ce35760405163ec442f0560e01b81525f600482015260240161072d565b6105a25f838361106d565b5f61055143611078565b6001600160a01b038281165f8181526008602052604080822080548686166001600160a01b0319821681179092559151919094169392849290917f3134e8a2e6d97e929a7e54011ea5485d7d196dd5f0ba4d4ef95803e8e3fc257f9190a46109888183610d648661125c565b611279565b6001600160a01b0381165f9081526009602052604081205461051f906113e2565b600b80546001600160a01b038381166001600160a01b0319831681179093556040519116919082907f8be0079c531659141344cd1fd0a4f28419497f9722a3daafe3b4186f6b6457e0905f90a35050565b6001600160a01b0381165f9081526007602052604081205461051f565b60606105517f00000000000000000000000000000000000000000000000000000000000000006005611412565b60606105517f00000000000000000000000000000000000000000000000000000000000000006006611412565b80545f908015610e8157610e6b83610c5d600184611e1a565b54600160301b90046001600160d01b0316610921565b5f9392505050565b6001600160a01b038216610eb257604051634b637e8f60e11b81525f600482015260240161072d565b6105a2825f8361106d565b5f61051f610ec9610a66565b8360405161190160f01b8152600281019290925260228201526042902090565b5f5f5f5f610ef9888888886114bb565b925092509250610f098282611583565b50909695505050505050565b6001600160a01b0382165f908152600760205260409020805460018101909155818114610988576040516301d4b62360e61b81526001600160a01b03841660048201526024810182905260440161072d565b604080518082019091525f80825260208201526001600160a01b0383165f908152600960205260409020610921908361163b565b6001600160a01b038416610fc45760405163e602df0560e01b81525f600482015260240161072d565b6001600160a01b038316610fed57604051634a1406b160e11b81525f600482015260240161072d565b6001600160a01b038085165f9081526001602090815260408083209387168352929052208290558015610a0357826001600160a01b0316846001600160a01b03167f8c5be1e5ebec7d5bd14f71427d1e84f3dd0314c0f7b2291e5b200ac8c7c3b9258460405161105f91815260200190565b60405180910390a350505050565b6109888383836116a8565b5f65ffffffffffff8211156110aa576040516306dfcc6560e41b8152603060048201526024810183905260440161072d565b5090565b5f600182116110bb575090565b816001600160801b82106110d45760809190911c9060401b5b6801000000000000000082106110ef5760409190911c9060201b5b64010000000082106111065760209190911c9060101b5b62010000821061111b5760109190911c9060081b5b610100821061112f5760089190911c9060041b5b601082106111425760049190911c9060021b5b6004821061114e5760011b5b600302600190811c9081858161116657611166611e40565b048201901c9050600181858161117e5761117e611e40565b048201901c9050600181858161119657611196611e40565b048201901c905060018185816111ae576111ae611e40565b048201901c905060018185816111c6576111c6611e40565b048201901c905060018185816111de576111de611e40565b048201901c90506111fd8185816111f7576111f7611e40565b04821190565b90039392505050565b5f5b81831015611254575f85815260209020838316600285851804019081015465ffffffffffff868116911611156112405780925061124e565b61124b816001611e2d565b93505b50611208565b509392505050565b6001600160a01b0381165f9081526020819052604081205461051f565b816001600160a01b0316836001600160a01b03161415801561129a57505f81115b15610988576001600160a01b03831615611341576001600160a01b0383165f90815260096020526040812081906112dc906109706112d78661170e565b611741565b6001600160d01b031691506001600160d01b03169150846001600160a01b03167fdec2bacdd2f05b59de34da9b523dff8be42e5e38e818c82fdb0bae774387a7248383604051611336929190918252602082015260400190565b60405180910390a250505b6001600160a01b03821615610988576001600160a01b0382165f9081526009602052604081208190611379906109656112d78661170e565b6001600160d01b031691506001600160d01b03169150836001600160a01b03167fdec2bacdd2f05b59de34da9b523dff8be42e5e38e818c82fdb0bae774387a72483836040516113d3929190918252602082015260400190565b60405180910390a25050505050565b5f63ffffffff8211156110aa576040516306dfcc6560e41b8152602060048201526024810183905260440161072d565b606060ff831461142c5761142583611779565b905061051f565b81805461143890611d90565b80601f016020809104026020016040519081016040528092919081815260200182805461146490611d90565b80156114af5780601f10611486576101008083540402835291602001916114af565b820191905f5260205f20905b81548152906001019060200180831161149257829003601f168201915b5050505050905061051f565b5f80807f7fffffffffffffffffffffffffffffff5d576e7357a4501ddfe92f46681b20a08411156114f457505f91506003905082611579565b604080515f808252602082018084528a905260ff891692820192909252606081018790526080810186905260019060a0016020604051602081039080840390855afa158015611545573d5f5f3e3d5ffd5b5050604051601f1901519150506001600160a01b03811661157057505f925060019150829050611579565b92505f91508190505b9450945094915050565b5f82600381111561159657611596611e54565b0361159f575050565b60018260038111156115b3576115b3611e54565b036115d15760405163f645eedf60e01b815260040160405180910390fd5b60028260038111156115e5576115e5611e54565b036116065760405163fce698f760e01b81526004810182905260240161072d565b600382600381111561161a5761161a611e54565b036105a2576040516335e2f38360e21b81526004810182905260240161072d565b604080518082019091525f8082526020820152825f018263ffffffff168154811061166857611668611e68565b5f9182526020918290206040805180820190915291015465ffffffffffff81168252600160301b90046001600160d01b0316918101919091529392505050565b6116b38383836117b6565b6001600160a01b038316611703575f6116cb60025490565b90506001600160d01b038082111561170057604051630e58ae9360e11b8152600481018390526024810182905260440161072d565b50505b6109888383836118dc565b5f6001600160d01b038211156110aa576040516306dfcc6560e41b815260d060048201526024810183905260440161072d565b5f5f61176c61174e6106b6565b61176461175a88610e52565b868863ffffffff16565b879190611951565b915091505b935093915050565b60605f6117858361195e565b6040805160208082528183019092529192505f91906020820181803683375050509182525060208101929092525090565b6001600160a01b0383166117e0578060025f8282546117d59190611e2d565b909155506118509050565b6001600160a01b0383165f90815260208190526040902054818110156118325760405163391434e360e21b81526001600160a01b0385166004820152602481018290526044810183905260640161072d565b6001600160a01b0384165f9081526020819052604090209082900390555b6001600160a01b03821661186c5760028054829003905561188a565b6001600160a01b0382165f9081526020819052604090208054820190555b816001600160a01b0316836001600160a01b03167fddf252ad1be2c89b69c2b068fc378daa952ba7f163c4a11628f55a4df523b3ef836040516118cf91815260200190565b60405180910390a3505050565b6001600160a01b0383166118fe576118fb600a6109656112d78461170e565b50505b6001600160a01b0382166119205761191d600a6109706112d78461170e565b50505b6001600160a01b038381165f9081526008602052604080822054858416835291205461098892918216911683611279565b5f8061176c858585611985565b5f60ff8216601f81111561051f57604051632cd44ac360e21b815260040160405180910390fd5b82545f9081908015611a7b575f6119a187610c5d600185611e1a565b805490915065ffffffffffff80821691600160301b90046001600160d01b03169088168211156119e457604051632520601d60e01b815260040160405180910390fd5b8765ffffffffffff168265ffffffffffff1603611a1d57825465ffffffffffff16600160301b6001600160d01b03891602178355611a6d565b6040805180820190915265ffffffffffff808a1682526001600160d01b03808a1660208085019182528d54600181018f555f8f81529190912094519151909216600160301b029216919091179101555b945085935061177192505050565b50506040805180820190915265ffffffffffff80851682526001600160d01b0380851660208085019182528854600181018a555f8a815291822095519251909316600160301b029190931617920191909155905081611771565b5f81518084528060208401602086015e5f602082860101526020601f19601f83011685010191505092915050565b602081525f6109216020830184611ad5565b80356001600160a01b0381168114611b2b575f5ffd5b919050565b5f5f60408385031215611b41575f5ffd5b611b4a83611b15565b946020939093013593505050565b5f5f5f60608486031215611b6a575f5ffd5b611b7384611b15565b9250611b8160208501611b15565b929592945050506040919091013590565b5f60208284031215611ba2575f5ffd5b61092182611b15565b60ff60f81b8816815260e060208201525f611bc960e0830189611ad5565b8281036040840152611bdb8189611ad5565b606084018890526001600160a01b038716608085015260a0840186905283810360c0850152845180825260208087019350909101905f5b81811015611c30578351835260209384019390920191600101611c12565b50909b9a5050505050505050505050565b5f60208284031215611c51575f5ffd5b5035919050565b803560ff81168114611b2b575f5ffd5b5f5f5f5f5f5f60c08789031215611c7d575f5ffd5b611c8687611b15565b95506020870135945060408701359350611ca260608801611c58565b9598949750929560808101359460a0909101359350915050565b5f5f5f5f5f5f5f60e0888a031215611cd2575f5ffd5b611cdb88611b15565b9650611ce960208901611b15565b95506040880135945060608801359350611d0560808901611c58565b9699959850939692959460a0840135945060c09093013592915050565b5f5f60408385031215611d33575f5ffd5b611d3c83611b15565b9150611d4a60208401611b15565b90509250929050565b5f5f60408385031215611d64575f5ffd5b611d6d83611b15565b9150602083013563ffffffff81168114611d85575f5ffd5b809150509250929050565b600181811c90821680611da457607f821691505b602082108103611dc257634e487b7160e01b5f52602260045260245ffd5b50919050565b634e487b7160e01b5f52601160045260245ffd5b6001600160d01b03818116838216019081111561051f5761051f611dc8565b6001600160d01b03828116828216039081111561051f5761051f611dc8565b8181038181111561051f5761051f611dc8565b8082018082111561051f5761051f611dc8565b634e487b7160e01b5f52601260045260245ffd5b634e487b7160e01b5f52602160045260245ffd5b634e487b7160e01b5f52603260045260245ffdfea26469706673582212207424cb8ee22c34f0b58d483321bb1e29edd510197d79d8495fd5518dd6a1378864736f6c63430008210033dec2bacdd2f05b59de34da9b523dff8be42e5e38e818c82fdb0bae774387a724","linkReferences":{}},"methodIdentifiers":{"CLOCK_MODE()":"4bf5d7e9","DOMAIN_SEPARATOR()":"3644e515","allowance(address,address)":"dd62ed3e","approve(address,uint256)":"095ea7b3","balanceOf(address)":"70a08231","burn(address,uint256)":"9dc29fac","checkpoints(address,uint32)":"f1127ed8","clock()":"91ddadf4","decimals()":"313ce567","delegate(address)":"5c19a95c","delegateBySig(address,uint256,uint256,uint8,bytes32,bytes32)":"c3cda520","delegates(address)":"587cde1e","eip712Domain()":"84b0196e","getPastTotalSupply(uint256)":"8e539e8c","getPastVotes(address,uint256)":"3a46b1a8","getVotes(address)":"9ab24eb0","mint(address,uint256)":"40c10f19","name()":"06fdde03","nonces(address)":"7ecebe00","numCheckpoints(address)":"6fcfff45","owner()":"8da5cb5b","permit(address,address,uint256,uint256,uint8,bytes32,bytes32)":"d505accf","renounceOwnership()":"715018a6","symbol()":"95d89b41","totalSupply()":"18160ddd","transfer(address,uint256)":"a9059cbb","transferFrom(address,address,uint256)":"23b872dd","transferOwnership(address)":"f2fde38b"},"id":4}